S01300004C43445F53657373696F6E2E73726563FB
S11300000C942A000C9434000C9434000C943400A6
S11300100C9434000C9434000C9434000C9434008C
S11300200C9434000C9434000C9434000C9434007C
S11300300C9434000C9434000C9434000C9434006C
S11300400C9434000C9434000C9434000C9434005C
S11300500C94340011241FBECFE5D8E0DEBFCDBF21
S11300600E94F7010C94FE010C9400004423B9F1A2
S1130070413009F06BC0813089F028F08230C9F03A
S1130080833011F108952AB381E090E002C0880F13
S1130090991F6A95E2F7822B8ABB089527B381E002
S11300A090E002C0880F991F6A95E2F7822B87BB04
S11300B0089524B381E090E002C0880F991F6A95E7
S11300C0E2F7822B84BB089521B381E090E002C063
S11300D0880F991F6A95E2F7822B81BB08958130BE
S11300E091F028F08230D9F0833029F108952AB3B1
S11300F081E090E002C0880F991F6A95E2F780952D
S113010082238ABB089527B381E090E002C0880F60
S1130110991F6A95E2F78095822387BB089524B3DB
S113012081E090E002C0880F991F6A95E2F78095FC
S1130130822384BB089521B381E090E002C0880F3C
S1130140991F6A95E2F78095822381BB0895442321
S1130150B9F1413009F06BC0813089F028F0823068
S1130160C9F0833011F108952BB381E090E002C00F
S1130170880F991F6A95E2F7822B8BBB089528B3E9
S113018081E090E0062E02C0880F991F0A94E2F7DE
S1130190822B88BB25B381E090E002C0880F991FB1
S11301A06A95E2F7822B85BB089522B381E090E043
S11301B002C0880F991F6A95E2F7822B82BB0895CB
S11301C0813091F028F08230D9F0833029F10895FC
S11301D02BB381E090E002C0880F991F6A95E2F783
S11301E0809582238BBB089528B381E090E002C000
S11301F0880F991F6A95E2F78095822388BB08953A
S113020025B381E090E002C0880F991F6A95E2F758
S11302108095822385BB089522B381E090E002C0DB
S1130220880F991F6A95E2F78095822382BB08950F
S1130230CF93C82F88B340E062E00E94A70088B340
S113024040E061E00E94A70088B340E063E00E94C0
S1130250A7008C2F807F88BB88B341E063E00E94B5
S1130260A70089EF90E00197F1F700C0000088B380
S113027040E063E00E94A700C295C07FC8BB88B37A
S113028041E063E00E94A70089EF90E00197F1F755
S113029000C0000088B340E063E00E94A70081EE44
S11302A094E00197F1F700C00000CF91089588B35E
S11302B041E061E00E94360088B341E062E00E94C0
S11302C0360088B341E063E00E94360088B341E021
S11302D064E00E94360088B341E065E00E94360085
S11302E088B341E066E00E94360088B341E067E0ED
S11302F00E94360087EA91E60197F1F700C00000FA
S113030083E30E94180182E30E94180188E20E949C
S113031018018CE00E94180181E00E94180187E80E
S113032093E10197F1F700C0000086E00E941801F4
S113033082E00E94180181EE94E00197F1F700C079
S113034000000895CF93C82F88B340E062E00E9474
S1130350A70088B340E061E00E94A70088B340E0B2
S113036063E00E94A7008C2F807F88BB88B341E0A4
S113037063E00E94A70089EF90E00197F1F700C0C5
S1130380000088B340E063E00E94A700C295C07FEC
S1130390C8BB88B341E063E00E94A70089EF90E006
S11303A00197F1F700C0000088B340E063E00E94C9
S11303B0A70081EE94E00197F1F700C00000CF910F
S11303C008950F931F93CF93FC018081882359F0E4
S11303D08F01C0E00E94A201CF5FF801EC0FF11D74
S11303E080818111F7CFCF911F910F9108950E94C1
S11303F0570185E69DE60E94E101FFCFF894FFCF07
S9030000FC
