S01300004C43445F53657373696F6E2E73726563FB
S11300000C942A000C9434000C9434000C943400A6
S11300100C9434000C9434000C9434000C9434008C
S11300200C9434000C9434000C9434000C9434007C
S11300300C9434000C9434000C9434000C9434006C
S11300400C9434000C9434000C9434000C9434005C
S11300500C94340011241FBECFE5D8E0DEBFCDBF21
S11300600E94D3010C94D9010C940000442379F12B
S1130070413009F05FC0813079F028F08230A9F076
S11300808330E1F008952AB381E090E001C0880F45
S11300906A95EAF7822B2CC027B381E090E001C077
S11300A0880F6A95EAF7822B2EC024B381E090E092
S11300B001C0880F6A95EAF7822B30C021B381E032
S11300C090E001C0880F6A95EAF7822B32C0813034
S11300D089F028F08230C9F0833011F108952AB3F1
S11300E081E090E001C0880F6A95EAF78095822349
S11300F08ABB089527B381E090E001C0880F6A9518
S1130100EAF78095822387BB089524B381E090E0C9
S113011001C0880F6A95EAF78095822384BB08950D
S113012021B381E090E001C0880F6A95EAF78095D9
S1130130822381BB0895442381F1413009F060C0DA
S1130140813079F028F08230B1F08330E9F00895FD
S11301502BB381E090E001C0880F6A95EAF7822B07
S11301602DC028B381E090E0062E01C0880F0A94C8
S1130170EAF7822B88BB25B381E090E001C0880FA9
S11301806A95EAF7822B30C022B381E090E001C087
S1130190880F6A95EAF7822B32C0813089F028F003
S11301A08230C9F0833011F108952BB381E090E0DF
S11301B001C0880F6A95EAF7809582238BBB089566
S11301C028B381E090E001C0880F6A95EAF7809532
S11301D0822388BB089525B381E090E001C0880F95
S11301E06A95EAF78095822385BB089522B381E05E
S11301F090E001C0880F6A95EAF78095822382BB5C
S11302000895CF93C82F40E062E081E00E949B00F4
S113021040E061E081E00E949B0040E063E081E017
S11302200E949B008BB39C2F907F8F70892B8BBB7C
S113023041E063E081E00E949B0089EF90E0019738
S1130240F1F700C0000040E063E081E00E949B0001
S11302502BB330E1C39FC0011124922F9F70892BCF
S11302608BBB41E063E081E00E949B0089EF90E05A
S11302700197F1F700C0000040E063E081E00E94D4
S11302809B0081EE94E00197F1F700C00000CF914C
S1130290089541E061E081E00E94360041E062E0BF
S11302A081E00E94360041E063E081E00E94360074
S11302B041E064E080E00E94360041E065E080E0D7
S11302C00E94360041E066E080E00E94360041E092
S11302D067E080E00E94360087EA91E60197F1F733
S11302E000C0000083E30E94010182E30E94010137
S11302F088E20E9401018CE00E94010181E00E94D9
S1130300010187E893E10197F1F700C0000086E05E
S11303100E94010182E00E94010181EE94E00197B4
S1130320F1F700C000000895CF93C82F40E062E0C9
S113033081E00E949B0040E061E081E00E949B001C
S113034040E063E081E00E949B008C2F807F8BBBA8
S113035041E063E081E00E949B0089EF90E0019717
S1130360F1F700C0000040E063E081E00E949B00E0
S1130370C295C07FCBBB41E063E081E00E949B005B
S113038089EF90E00197F1F700C0000040E063E0DE
S113039081E00E949B0081EE94E00197F1F700C098
S11303A00000CF9108950E94490181E40E949401C4
S10903B0FFCFF894FFCF1B
S9030000FC
